{
    "contractName": "Transactions",
    "abi": [
        {
            "anonymous": false,
            "inputs": [
                {
                    "indexed": false,
                    "internalType": "address",
                    "name": "from",
                    "type": "address"
                },
                {
                    "indexed": false,
                    "internalType": "address",
                    "name": "receiver",
                    "type": "address"
                },
                {
                    "indexed": false,
                    "internalType": "uint256",
                    "name": "amount",
                    "type": "uint256"
                },
                {
                    "indexed": false,
                    "internalType": "string",
                    "name": "message",
                    "type": "string"
                },
                {
                    "indexed": false,
                    "internalType": "uint256",
                    "name": "timestamp",
                    "type": "uint256"
                },
                {
                    "indexed": false,
                    "internalType": "string",
                    "name": "keyword",
                    "type": "string"
                }
            ],
            "name": "Transfer",
            "type": "event"
        },
        {
            "inputs": [],
            "name": "addToBlockchain",
            "outputs": [],
            "stateMutability": "nonpayable",
            "type": "function"
        },
        {
            "inputs": [],
            "name": "getAllTransactions",
            "outputs": [
                {
                    "components": [
                        {
                            "internalType": "address",
                            "name": "sender",
                            "type": "address"
                        },
                        {
                            "internalType": "address",
                            "name": "receiver",
                            "type": "address"
                        },
                        {
                            "internalType": "uint256",
                            "name": "amount",
                            "type": "uint256"
                        },
                        {
                            "internalType": "string",
                            "name": "message",
                            "type": "string"
                        },
                        {
                            "internalType": "uint256",
                            "name": "timestamp",
                            "type": "uint256"
                        },
                        {
                            "internalType": "string",
                            "name": "keyword",
                            "type": "string"
                        }
                    ],
                    "internalType": "struct Transactions.TransferStruct",
                    "name": "",
                    "type": "tuple"
                }
            ],
            "stateMutability": "view",
            "type": "function"
        },
        {
            "inputs": [],
            "name": "getTransactionCount",
            "outputs": [
                {
                    "internalType": "uint256",
                    "name": "",
                    "type": "uint256"
                }
            ],
            "stateMutability": "view",
            "type": "function"
        }
    ],
    "bytecode": "608060405234801561001057600080fd5b50610203806100206000396000f3fe608060405234801561001057600080fd5b50600436106100415760003560e01c806327506f53146100465780632e7700f01461006457806341d44af714610073575b600080fd5b61004e61007d565b60405161005b9190610131565b60405180910390f35b6040516000815260200161005b565b61007b6100cb565b005b6100c86040518060c0016040528060006001600160a01b0316815260200160006001600160a01b03168152602001600081526020016060815260200160008152602001606081525090565b90565b60016000808282546100dd91906101a7565b9091555050565b6000815180845260005b8181101561010a576020818501810151868301820152016100ee565b8181111561011c576000602083870101525b50601f01601f19169290920160200192915050565b60208152600060018060a01b038084511660208401528060208501511660408401525060408301516060830152606083015160c0608084015261017760e08401826100e4565b9050608084015160a084015260a0840151601f198483030160c085015261019e82826100e4565b95945050505050565b600082198211156101c857634e487b7160e01b600052601160045260246000fd5b50019056fea264697066735822122002d94e2f3f3bae3755b9e4ecf46c41cf041acedfd7f0a7a12ed16ba12d82280064736f6c634300080c0033",
    "sourcePath": "/Users/notrandom/javascript/web3.0/smart_contract/contracts/Transactions.sol",
    "compiler": {
        "name": "solc",
        "version": "0.8.12+commit.f00d7308"
    },
    "functionHashes": {
        "addToBlockchain()": "41d44af7",
        "getAllTransactions()": "27506f53",
        "getTransactionCount()": "2e7700f0"
    },
    "gasEstimates": {
        "creation": {
            "codeDepositCost": "103000",
            "executionCost": "153",
            "totalCost": "103153"
        },
        "external": {
            "addToBlockchain()": "24461",
            "getAllTransactions()": "infinite",
            "getTransactionCount()": "177"
        }
    }
}